0001000704900002124928561759579913          USD00000000243440000000024344CTA0010AHO00000000004710034100N1759579913          12 TORRESANO GUAMAN JUAN IGNACIO        01.02 PENSION BASICA             12 2023011220231307390000PROCESO OK                              000212492856SRV                    
0001000704900002124928871758750853          USD00000000243440000000024344CTA0010AHO00000000005777865600N1758750853          12 CAMPANA PAZ ISABELLA VALENTINA       01.02 PENSION BASICA             12 2023011220231806510000PROCESO OK                              000212492887SRV                    
0001000704900002124928951759160896          USD00000000243440000000024344CTA0010AHO00000000005462080300N1759160896          12 ERREIS ROLDAN AMELIA CAROLINA        01.02 PENSION BASICA             12 2023011220231430400000PROCESO OK                              000212492895SRV                    
0001000704900002124929201758162158          USD00000000243440000000024344CTA0010AHO00000000005552445400N1758162158          12 FAJARDO MUNOZ RAFAELA                01.02 PENSION BASICA             12 2023011220231016190000PROCESO OK                              000212492920SRV                    
0001000704900002124929331758362576          USD00000000243440000000024344CTA0010AHO00000000002205427294N1758362576          12 SANTILLAN ITURRIAGA ISABELLA VICTORIA01.02 PENSION BASICA             12 2023011220231032490000PROCESO OK                              000212492933SRV                    
0001000704900002124929611757708357          USD00000000243440000000024344CTA0010AHO00000000005462080300N1757708357          12 ERREIS ROLDAN SARA VICTORIA          01.02 PENSION BASICA             12 2023011220231429100000PROCESO OK                              000212492961SRV                    
0001000704900002124929961757807431          USD00000000012840000000001284CTA0010AHO00000000002204557532N1757807431          11 BRIONES SANDOVAL LIA ISABELLA        01.02 PENSION BASICA             11 2023011220231222290000PROCESO OK                              000212492996SRV                    
0001000704900002124929971757807431          USD00000000192210000000019221CTA0010AHO00000000002204557532N1757807431          12 BRIONES SANDOVAL LIA ISABELLA        01.02 PENSION BASICA             12 2023011220231222500000PROCESO OK                              000212492997SRV                    
0001000704900002124930431756945943          USD00000000243440000000024344CTA0010CTE00000000003024977904N1756945943          12 CARRERA ESPINOZA ALEX GABRIEL        01.02 PENSION BASICA             12 2023011220230914200000PROCESO OK                              000212493043SRV                    
0001000704900002124930561756642029          USD00000000243440000000024344CTA0010AHO00000000003569549000N1756642029          12 MEDINA TERAN XAVIER ALEJANDRO        01.02 PENSION BASICA             12 2023011220231225480000PROCESO OK                              000212493056SRV                    
0001000704900002124930611756972467          USD00000000243440000000024344CTA0010AHO00000000003036283100N1756972467          12 PAZMINO HERRERA FERNANDO DIMITRY     01.02 PENSION BASICA             12 2023011220230947490000PROCESO OK                              000212493061SRV                    
0001000704900002124931051756786743          USD00000000243440000000024344CTA0010AHO00000000004710034100N1756786743          12 TORRESANO GUAMAN LEONARDO STALIN     01.02 PENSION BASICA             12 2023011220231306410000PROCESO OK                              000212493105SRV                    
0001000704900002124931191755358072          USD00000000243440000000024344CTA0010AHO00000000005552445400N1755358072          12 FAJARDO MUNOZ VALENTINA ISABEL       01.02 PENSION BASICA             12 2023011220231015450000PROCESO OK                              000212493119SRV                    
0001000704900002124931491755352281          USD00000000243440000000024344CTA0010AHO00000000002207636485N1755352281          12 BENITEZ PINO ESTEBAN ALEJANDRO       01.02 PENSION BASICA             12 2023011220231711370000PROCESO OK                              000212493149SRV                    
0001000704900002124932891752280790          USD00000000243440000000024344CTA0010AHO00000000002206588330N1752280790          12 GUAMAN TIPANTUNA PABLO MATIAS        01.02 PENSION BASICA             12 2023011220231152350000PROCESO OK                              000212493289SRV                    
0001000704900002124933111752781409          USD00000000243440000000024344CTA0010AHO00000000002200040811N1752781409          12 SUAREZ SALAZAR GABRIEL FERNANDO      01.02 PENSION BASICA             12 2023011220231038530000PROCESO OK                              000212493311SRV                    
0001000704900002124933541750870493          USD00000000243440000000024344CTA0010AHO00000000002203153606N1750870493          12 ALARCON ROMO ERICK GABRIEL           01.02 PENSION BASICA             12 2023011220231309300000PROCESO OK                              000212493354SRV                    
0001000704900002124933971753334349          USD00000000243440000000024344CTA0010AHO00000000002206027810N1753334349          12 BACA GALLEGOS NAOMI VALENTINA        01.02 PENSION BASICA             12 2023011220231031560000PROCESO OK                              000212493397SRV                    
0001000704900002124934021751323070          USD00000000243440000000024344CTA0010AHO00000000002204597046N1751323070          12 CARDENAS GONZALEZ CAMILA ELIZABETH   01.02 PENSION BASICA             12 2023011220231501280000PROCESO OK                              000212493402SRV                    
0001000704900002124934031751141449          USD00000000243440000000024344CTA0010AHO00000000003017062800N1751141449          12 CRUZ JACOME EMILY                    01.02 PENSION BASICA             12 2023011220231002100000PROCESO OK                              000212493403SRV                    
0001000704900002124934081751336254          USD00000000243440000000024344CTA0010AHO00000000002203293985N1751336254          12 LANDETA TAPIA JUAN SEBASTIAN         01.02 PENSION BASICA             12 2023011220231647150000PROCESO OK                              000212493408SRV                    
0001000704900002124936621728925924          USD00000000264900000000026490CTA0010AHO00000000002203153606N1728925924          12 ALARCON ROMO LEANDRO VLADIMIR        01.04 PENSION  BACHILLERATO      12 2023011220231312320000PROCESO OK                              000212493662SRV                    
0001000704900002124937941729372423          USD00000000264900000000026490EFE0010   00000000000000000000N1729372423          12 JARAMILLO PAZMINO ANDREA NICOLE      01.04 PENSION  BACHILLERATO      12 2023011220231053560000PROCESO OK                              000033626075VEN                    
0001000704900002124939331750888321          USD00000000264900000000026490EFE0010   00000000000000000000N1750888321          12 GUEVARA GUANUCHI ANDREA MIKAELA      01.04 PENSION  BACHILLERATO      12 2023011220231212450000PROCESO OK                              000046998949CNB                    
0001000704900002124939480605999283          USD00000000278850000000027885EFE0010   00000000000000000000N0605999283          09 RAMOS GUERRA  STEPHANY DOMENICA      01.04 PENSION  BACHILLERATO      09 2023011220231337090000PROCESO OK                              000058233741VEN                    
